:100000000C9462000C948A000C948A000C948A0070
:100010000C948A000C948A000C948A000C94F601CB
:100020000C948A000C948A000C948A000C948A0028
:100030000C948A000C948A000C948A000C948A0018
:100040000C9446040C948A000C94C4010C949E01F8
:100050000C948A000C948A000C948A000C948A00F8
:100060000C948A000C948A000000000023002600F3
:10007000290000000000240027002A0000000000E2
:10008000250028002B0004040404040404040202D4
:100090000202020203030303030301020408102007
:1000A0004080010204081020010204081020000012
:1000B0000008000201000003040700000000000027
:1000C00000006D0C11241FBECFEFD8E0DEBFCDBF06
:1000D00011E0A0E0B1E0ECE8FEE102C005900D9275
:1000E000A631B107D9F722E0A6E1B1E001C01D9227
:1000F000A13AB207E1F710E0C2E6D0E004C02197D0
:10010000FE010E94F10CC136D107C9F70E9490048C
:100110000C94440F0C940000CF92DF92EF92FF9268
:100120000F931F93CF93DF936C017A018B01C0E093
:10013000D0E0CE15DF0581F0D8016D918D01D6019B
:10014000ED91FC910190F081E02DC6010995892B7C
:1001500011F02196EECF7E01C701DF91CF911F9163
:100160000F91FF90EF90DF90CF900895089580E079
:1001700090E00895FC01538D448D252F30E0842FAD
:1001800090E0821B930B541710F0CF9608950197BF
:100190000895FC01918D828D981761F0828DDF01A9
:1001A000A80FB11D5D968C91928D9F5F9F73928F6A
:1001B00090E008958FEF9FEF0895FC01918D828D5F
:1001C000981731F0828DE80FF11D858D90E008952C
:1001D0008FEF9FEF0895FC01918D228D892F90E084
:1001E000805C9F4F821B91098F739927089588E245
:1001F00091E00E94EB0021E0892B09F420E0822F9E
:100200000895FC01848DDF01A80FB11DA35ABF4FD3
:100210002C91848D90E001968F739927848FA68905
:10022000B7892C93A089B1898C91837080648C9359
:10023000938D848D981306C00288F389E02D808108
:100240008F7D80830895EF92FF920F931F93CF933A
:10025000DF93EC0181E0888F9B8D8C8D981305C016
:10026000E889F989808185FD26C0F62E0B8D10E086
:100270000F5F1F4F0F731127E02E8C8DE8120CC0FB
:100280000FB607FCFACFE889F989808185FFF5CFA1
:10029000CE010E940101F1CF8B8DFE01E80FF11D0F
:1002A000E35AFF4FF0829FB7F8940B8FEA89FB89DE
:1002B000808180620AC09FB7F894EE89FF896083CD
:1002C000E889F98980818370806480839FBF81E0A1
:1002D00090E0DF91CF911F910F91FF90EF900895E3
:1002E000CF93DF93EC01888D8823C9F0EA89FB89DD
:1002F000808185FD05C0A889B9898C9186FD0FC0D4
:100300000FB607FCF5CF808185FFF2CFA889B989A8
:100310008C9185FFEDCFCE010E940101E7CFDF91E7
:10032000CF91089580E090E0892B29F00E94F7009A
:1003300081110C94000008950E943F0F1F920F92AC
:100340000FB60F9211242F933F934F935F936F93A8
:100350007F938F939F93AF93BF93EF93FF9388E225
:1003600091E00E940101FF91EF91BF91AF919F91A8
:100370008F917F916F915F914F913F912F910F904E
:100380000FBE0F901F9018951F920F920FB60F92ED
:1003900011242F938F939F93EF93FF93E091380154
:1003A000F09139018081E0913E01F0913F0182FDA1
:1003B00012C09081809141018F5F8F732091420123
:1003C000821751F0E0914101F0E0E85DFE4F958F1A
:1003D0008093410101C08081FF91EF919F918F91A6
:1003E0002F910F900FBE0F901F9018951F920F9294
:1003F0000FB60F9211242F933F934F935F936F93F8
:100400007F938F939F93AF93BF93CF93DF93EF939C
:10041000FF932091C60130E0F901E255FF4F84912E
:10042000F901E656FF4FD491F901EA57FF4FC49105
:10043000CC2379F081110E948D03EC2FF0E0EE0FB8
:10044000FF1FE859FF4FA591B491EC91ED2381E096
:1004500009F480E02091CA013091CB012F5F3F4F1A
:100460003093CB012093CA019091C901953618F0C1
:1004700096E09093C5019091C5019430C9F128F49C
:10048000923069F09330D1F05EC0953009F451C0DC
:10049000963009F058C091E09093960251C08111B6
:1004A00052C02091CA013091CB012436310508F4A5
:1004B00042C0109296021092C9011CC0813009F00E
:1004C00042C0E091C90191E09E0F9093C901F0E014
:1004D0002091CA013091CB01EE0FFF1FEB53FE4F6D
:1004E000308727831092CB011092CA0194E029C073
:1004F000811117C0E091C90191E09E0F9093C9014D
:10050000F0E02091CA013091CB01EE0FFF1FEB53B9
:10051000FE4F308727831092CB011092CA0193E0DF
:1005200010C02091CA013091CB012536310558F019
:1005300007C0811108C01092CB011092CA0103C0FC
:1005400095E09093C5019091C8019923B9F081116C
:100550000AC08091C701882321F08091C70161E022
:1005600009C02D9A0BC08091C701882331F080917A
:10057000C70160E00E94B60301C02D98FF91EF9182
:10058000DF91CF91BF91AF919F918F917F916F91AB
:100590005F914F913F912F910F900FBE0F901F9041
:1005A0001895CF92DF92EF92FF92CF93DF93EC01F9
:1005B000072E000C880B990B0E94220E6B017C0108
:1005C00020E030E040E45FE30E94D20E20E030E023
:1005D00048E452E40E94780D0E94EA0DC617D7073E
:1005E000D4F020E030E040EA5FE3C701B6010E94AA
:1005F000D20E20E030E048E452E40E94780D20E082
:1006000030E040E85FE30E94070D0E94EA0D21E020
:100610006C177D070CF420E0822F90E0DF91CF91E2
:10062000FF90EF90DF90CF9008958F929F92AF92BE
:10063000BF92CF92DF92EF92FF920F931F93CF93CF
:10064000DF93FC0120813181E0912401F0912501AB
:100650002E173F070CF04FC0F901EE0FFF1FA091BE
:100660002201B0912301EA0FFB1FA080B18021700D
:1006700033276901F1E0CF26232B19F42CE93FEF52
:1006800002C024E630E07A018B01EC014901840EBE
:10069000951EB401C5010E94D102892B99F48E0CDC
:1006A0009F1CB401C5010E94D102892B71F4B701CE
:1006B000680D791DC5010E94D102892BF9F023E054
:1006C00030E005C021E030E002C022E030E0F80177
:1006D000808191810196821793071CF49183808316
:1006E00008C0F8011182108288819981019699834E
:1006F0008883C60105C081E090E002C08FEF9FEFC4
:10070000DF91CF911F910F91FF90EF90DF90CF90ED
:10071000BF90AF909F908F900895833081F028F420
:10072000813099F08230A1F008958730A9F08830A7
:10073000B9F08430D1F4809180008F7D03C0809126
:1007400080008F7780938000089584B58F7702C0F2
:1007500084B58F7D84BD08958091B0008F7703C0EC
:100760008091B0008F7D8093B00008951F93CF9348
:10077000DF93282F30E0F901E255FF4F8491F90112
:10078000E656FF4FD491F901EA57FF4FC491CC23AD
:10079000C1F0162F81110E948D03EC2FF0E0EE0FB7
:1007A000FF1FE458FF4FA591B4919FB7F894111122
:1007B00004C08C91D095D82302C0EC91DE2BDC9341
:1007C0009FBFDF91CF911F910895CF93DF9390E06A
:1007D000FC01E656FF4F2491FC01EA57FF4F84913C
:1007E000882361F190E0880F991FFC01EE58FF4FBC
:1007F000C591D491FC01E458FF4FA591B4916111CA
:1008000009C09FB7F8948881209582238883EC9152
:100810002E230BC0623061F49FB7F8948881322F89
:10082000309583238883EC912E2B2C939FBF06C099
:100830008FB7F894E8812E2B28838FBFDF91CF915B
:1008400008953FB7F89480919D0290919E02A091E7
:100850009F02B091A00226B5A89B05C02F3F19F0BA
:100860000196A11DB11D3FBFBA2FA92F982F882730
:10087000820F911DA11DB11DBC01CD0144E0660F89
:10088000771F881F991F4A95D1F708951F920F92DD
:100890000FB60F9211242F933F938F939F93AF9393
:1008A000BF938091990290919A02A0919B02B0917E
:1008B0009C02309198022CE0230F2D3720F40496EF
:1008C000A11DB11D05C02FE8230F0596A11DB11D67
:1008D000209398028093990290939A02A0939B028E
:1008E000B0939C0280919D0290919E02A0919F02E4
:1008F000B091A0020196A11DB11D80939D0290931D
:100900009E02A0939F02B093A002BF91AF919F91CE
:100910008F913F912F910F900FBE0F901F901895C0
:10092000CF93DF93CDB7DEB7AB970FB6F894DEBFAA
:100930000FBECDBF789484B5826084BD84B58160DC
:1009400084BD85B5826085BD85B5816085BD80919A
:100950006E00816080936E00109281008091810012
:10096000826080938100809180008160809380000C
:100970008091B10084608093B1008091B00081606B
:100980008093B00080917A00846080937A00809197
:100990007A008D7F80937A0080917A0081608093C5
:1009A0007A0080917A00806880937A001092C1006A
:1009B000E0913801F091390182E08083E0913401C7
:1009C000F09135011082E0913601F091370193E307
:1009D000908310924001E0913C01F0913D0196E03E
:1009E0009083E0913A01F0913B0190819061908376
:1009F000E0913A01F0913B01908198609083E09101
:100A00003A01F0913B01908190689083E0913A0126
:100A1000F0913B0190819F7D9083F8948093B0008A
:100A200091E09093B10098EC9093B3001092B200D3
:100A30008093700078948093C5011092C9018091D1
:100A4000C60160E00E94E50361E088E00E94E503E2
:100A500061E087E00E94E50310E2212E312C44245E
:100A60004A94542C32012CEC31E030932301209332
:100A700022018091C90190E0909325018093240187
:100A80008091960290E090932701809326018091B7
:100A9000C501853009F036C18091CE019091CF011A
:100AA000885891098D35910588F48091C901843069
:100AB00041F48091D0019091D1018097479708F43B
:100AC00065C08091C901843408F01FC18091C901BB
:100AD0008A3108F482C18091CC019091CD01843F8C
:100AE000914068F4109221011092200140921C0163
:100AF00050921D0160921E0170921F0144C08091AE
:100B0000CE019091CF0185974B9708F066C1E2ED39
:100B1000F1E082E090E0C12CD12C7601AC014F5F76
:100B20005F4F2091C90130E0421753075CF4DF01A9
:100B300012972D913C91275031092730310508F447
:100B400030C1CA01019795958795909321018093B3
:100B500020010C972CF410922101109220013DC12C
:100B6000C0921C01D0921D01E0921E01F0921F0163
:100B700084E090E021C0C0921C01D0921D01E0925F
:100B80001E01F0921F018BE090E016C08091D2010F
:100B90009091D3010997099708F093CF1092210102
:100BA0001092200140921C0150921D0160921E0182
:100BB00070921F0183E090E09093190180931801D7
:100BC00000911C0110911D0120911E0130911F0107
:100BD00019A2BE016F5D7F4FD901C8018F7099279F
:100BE000AA27BB2794E036952795179507959A95E0
:100BF000D1F7615071098A3014F4805D01C0895CBD
:100C0000DB018C93011511052105310529F76115CB
:100C1000710561F0FB0101900020E9F73197AF0108
:100C2000461B570B88E291E00E948C0042E050E0A6
:100C300062E171E088E291E00E948C0080911C01E9
:100C400090911D01A0911E01B0911F018F3BE0E426
:100C50009E07EDEFAE07E2E0BE07B1F18F37904897
:100C6000AD4FB24009F049C061E088E00E94B60390
:100C70000E9421044B015C0100EDC02E07E0D02E44
:100C8000E12CF12C0E942104DC01CB018819990987
:100C9000AA09BB09883E9340A105B10598F321E05C
:100CA000C21AD108E108F10838EE830E33E0931E32
:100CB000A11CB11CC114D104E104F10419F760E0D6
:100CC00088E00E94B60319C0809116019091170127
:100CD000892B59F461E087E00E94B60321E030E0FF
:100CE000309317012093160108C060E087E00E944E
:100CF000B603109217011092160182E08093C5018D
:100D00001092C9010E949201AECE8091D0019091C3
:100D1000D101825491098E9708F0D8CE80E090E0FE
:100D200040E050E0BA01FC01EE52FE4F20813181DB
:100D3000295031092930310508F0C8CEFC01EC52A8
:100D4000FE4F208131812751310922313105E0F4F4
:100D5000440F551F661F771F416004968038910528
:100D600011F7309221012092200140931C015093F1
:100D70001D0160931E0170931F01A3E0B0E0B093CA
:100D80001901A09318011CCF20813181265031090F
:100D90002730310508F09ACE440F551F661F771F84
:100DA000DCCF20813181235131092F30310548F4C6
:100DB000CC0CDD1CEE1CFF1C6894C0F80296349627
:100DC000ADCE208131812A5031092930310528F4F6
:100DD000CC0CDD1CEE1CFF1CF1CF8091C9018A31C7
:100DE00008F45DC08091CC019091CD018032934098
:100DF00008F478CE8091CE019091CF01C697869766
:100E000008F04DC08091D0019091D101C69786978E
:100E100008F045C0E4EDF1E083E090E0C12CD12C76
:100E20007601AC014F5F5F4F2091C90130E042175E
:100E3000530754F4DF0112972D913C912C50310946
:100E40002B30310580F0CA010197959587959093D5
:100E50002101809320010C970CF08DCE109221017E
:100E6000109220011CC020813181255231092B3183
:100E7000310548F4CC0CDD1CEE1CFF1C6894C0F856
:100E800002963496CECF208131812C5031092A3000
:100E9000310528F4CC0CDD1CEE1CFF1CF1CF809139
:100EA000C901823208F458C08091CE019091CF01DF
:100EB0000697079708F050C0E2EDF1E082E090E07D
:100EC000C12CD12C76019C012F5F3F4F4091C9016D
:100ED00050E024173507CCF4DF0112974D915C9157
:100EE00011974E5151094731510540F5CC0CDD1C8D
:100EF000EE1CFF1C6894C0F8408151813496435029
:100F000051094530510530F1C901019795958795F3
:100F1000909321018093200140972CF4109221019D
:100F20001092200119C0C0921C01D0921D01E092C4
:100F30001E01F0921F018CE090E03ECE4D915C913D
:100F40004C5051094B30510538F4CC0CDD1CEE1CD3
:100F5000FF1CD2CF0296B7CF1BA21AA281E090E06D
:100F60009A8389838091C9018D3078F41BA21AA2DB
:100F700021E030E03A83298380912401909125017A
:100F8000181619060CF46CC0C3C049E753E0BE0143
:100F90006E5D7F4FCE0101960E941503892B31F7BC
:100FA00049E753E0BE016E5D7F4FCE0101960E947E
:100FB00015030197D9F649E753E0BE016E5D7F4FF7
:100FC000CE0101960E941503892B81F6812C912C6C
:100FD000540100E010E08091C90190E029813A813C
:100FE0002817390774F549E753E0BE016E5D7F4F5E
:100FF000CE0101960E9415037C0149E753E0BE0132
:101000006E5D7F4FCE0101960E94150331E0E3161D
:10101000F10451F4892B09F0A9CF880C991CAA1C62
:10102000BB1C689480F80AC0EF2809F09FCF019795
:1010300009F09CCF880C991CAA1CBB1C0F5F1F4F8A
:10104000CACF109321010093200180921C0190923D
:101050001D01A0921E01B0921F0181E090E0ACCD75
:10106000E0912201F091230182E090E09A8389834C
:101070008281938189974E9708F04AC0A3E0B0E03F
:10108000BA83A983848195810B970A9708F040C0A1
:101090004CEB51E0BE016E5D7F4FCE0101960E9488
:1010A0001503892BA9F54CEB51E0BE016E5D7F4F16
:1010B000CE0101960E941503019751F5812C912CC8
:1010C000540100E010E02091240130912501898134
:1010D0009A81821793070CF026C14CEB51E0BE01B8
:1010E0006E5D7F4FCE0101960E9415037C01033097
:1010F000110509F0E2C04CEB51E0BE016E5D7F4F7F
:10110000CE0101960E941503E816F90609F4D5C030
:10111000E0912201F091230182819381C697869705
:10112000E0F4848195814B974597B8F4DF011696DA
:101130007F0126ECE20EF11C20E030E040E050E0C0
:1011400060E070E080E090E00D911C9111970950F3
:1011500011090830110508F4F5C08091C9018933DF
:1011600070F182819381895791098335910508F443
:1011700025C125C0D90112966D917C9113976651B6
:1011800071096131710508F045C1D701C601880FA9
:10119000991FAA1FBB1F6C017D016894C0F84E5FA8
:1011A0005F4F2C5F3F4F4B33510509F416C1D901F6
:1011B0006D917C916A50710969307105D8F2809106
:1011C000C901823231F4828193810A97099708F428
:1011D00031C1828193818957910983359105D0F47A
:1011E0008091C9018132B0F084819581CA97899735
:1011F00088F49F012A5F3F4FC12CD12C760143E038
:1012000050E0D9016D917C916A5071096930710586
:1012100008F42EC1828193818C549109C59778F48A
:101220008091C901843031F48481958180974797FA
:1012300008F484C18091C901843408F066C18091AA
:10124000C901863460F1828193810C970B9708F471
:10125000C0C125C0D90112966D917C9113976E5132
:1012600071096731710508F0EAC1D701C601880F1D
:10127000991FAA1FBB1F6C017D016894C0F84E5FC7
:101280005F4F2C5F3F4F4534510509F4BDC1D90173
:101290006D917C916C5071096B307105D8F2809121
:1012A000C901883508F433C2828193818558910938
:1012B0008B35910508F4D3C12AC24CEB51E0BE0135
:1012C0006E5D7F4FCE0101960E9415036C010330C5
:1012D000110569F44CEB51E0BE016E5D7F4FCE010C
:1012E00001960E941503C816D90609F011CFE11422
:1012F000F10459F4CA94CD2809F00ACF880C991C3E
:10130000AA1CBB1C689480F80BC0EA94EF2809F073
:10131000FFCECD2809F0FCCE880C991CAA1CBB1C62
:101320000F5F1F4FD0CE10932101009320018092B8
:101330001C0190921D01A0921E01B0921F0182E03B
:1013400090E03ACC12960D911C911397015111091E
:101350000D30110528F501E00E94BA0C21601496A9
:10136000AE15BF0509F0F0CE20931C0130931D018E
:1013700040931E0150931F0100E20E94D50C209360
:101380001A0130931B01E5E0F0E0F0931901E093BE
:10139000180120E330E0309321012093200110CC8C
:1013A00012960D911C9113970450110905301105E7
:1013B00008F0D3CE01E00E94BA0CD1CF8481958190
:1013C000CA97899708F0FBCE9F012A5F3F4FC12C37
:1013D000D12C760143E050E0EACE9F012A583F4FDE
:1013E000D9012D913C912A5031092930310508F05D
:1013F000E6CE2CE130E03093210120932001C09211
:101400001C01D0921D01E0921E01F0921F018AE0A2
:1014100090E0D2CBD90112966D917C9113976650D2
:1014200071096730710508F0CACECC0CDD1CEE1CCA
:10143000FF1CB5CE2091C901CF01820F911D820FF3
:10144000911DDC0112978D919C910A97099708F0E4
:10145000C0CE109221011092200140921C015092A6
:101460001D0160921E0170921F01E6E0F0E030C2A3
:10147000D90112966D917C91139766517109613172
:10148000710598F5D701C601880F991FAA1FBB1FC8
:101490006C017D016894C0F84E5F5F4F2C5F3F4F39
:1014A0004332510509F0ADCE9F012A5B3F4FD90170
:1014B0002D913C912A5031092930310508F0AACEEE
:1014C000E0E1F0E0F0932101E0932001C0921C01E3
:1014D000D0921D01E0921E01F0921F0126E030E043
:1014E00030931901209318016BCBD90112966D919D
:1014F0007C911397665071096730710508F08ACEA8
:10150000CC0CDD1CEE1CFF1CC7CF84819581895457
:101510009109C39708F093CE9F012A5F3F4FBF0107
:101520006A577F4FC12CD12C7601D9014D915C9126
:101530004950510949305105A0F081CE86819781EB
:101540000997099708F076CE109221011092200198
:1015500040921C0150921D0160921E0170921F0169
:1015600025C0D90112964D915C91139746515109AE
:1015700041315105F0F4D701C601880F991FAA1F08
:10158000BB1F6C017D016894C0F82C5F3F4F26178C
:10159000370759F63092210120922001C0921C0198
:1015A000D0921D01E0921E01F0921F01E7E0F0E0F1
:1015B0008FC1D90112964D915C91139746505109F4
:1015C0004730510508F03BCECC0CDD1CEE1CFF1C57
:1015D000DCCF848195810997099708F060CE8681D8
:1015E00097818C974F9708F05ACE8085918589977F
:1015F0004D9708F054CE9F01265F3F4FC12CD12C50
:10160000760145E050E043CE9F0126573F4FD90178
:101610002D913C912C5031092B30310508F03FCEF3
:101620003092210120922001C0921C01D0921D0114
:10163000E0921E01F0921F0188E090E0BDCAD9013E
:1016400012966D917C9113976950710969307105FB
:1016500008F025CECC0CDD1CEE1CFF1C10CE8481C6
:101660009581825491098E9708F051C08F01045CD6
:101670001F4F8DE190E020E030E04091C90150E043
:101680004450510984179507ACF4A8014250510900
:10169000DA014D915C91495051094830510510F1E2
:1016A00036C0D8014D915C914851510942315105E4
:1016B00058F1CB01019795958795909321018093DF
:1016C00020018A9724F1C901330FAA0BBB0B809329
:1016D0001C0190931D01A0931E01B0931F0189E08E
:1016E00090E06ACABC016F5F7F4FD8014D915C9159
:1016F0004750510947305105A0F6220F331F216092
:1017000002960C5F1F4FB9CF220F331FF9CF809184
:10171000C9018032E1F48281938106970697B8F47B
:10172000848195810997099790F49F012A5F3F4F23
:10173000BF01625C7F4FC12CD12C7601D9014D9144
:101740005C91465051094630510508F486C02091FD
:101750002401309125013FA32EA3263031050CF43E
:10176000CCCA8F010E5F1F4F35ECC32E3DE9D32E3F
:101770003CE1E32E31E8F32E83E090E09DA38CA3BF
:10178000D80114966D917C911597AD90BC9080E036
:1017900090E00E94200E68A779A78AA79BA7B501B1
:1017A00080E090E00E94200E4B015C012DEC3CECAF
:1017B0004CE45FE30E94D20E9B01AC0168A579A5C1
:1017C0008AA59BA50E94730D87FD19C02DEC3CECEA
:1017D0004CE45FE368A579A58AA59BA50E94D20E7B
:1017E0009B01AC01C501B4010E94730DE82F880F65
:1017F000FF0BEE27FF0FEE1FFF27319602C0E0E040
:10180000F0E0A701960163E971E080E091E00E94B9
:101810009F0C6F01FF0FEE08FF08C626D726E826AB
:10182000F926ECA1FDA13196FDA3ECA30E5F1F4F9D
:101830002EA13FA12E173F0709F0A2CFC0921C0195
:10184000D0921D01E0921E01F0921F013092210101
:10185000209220018FEF9FEFAFC9D90112964D91D1
:101860005C911397495151094331510508F5D7014E
:10187000C601880F991FAA1FBB1F6C017D016894C8
:10188000C0F82C5F3F4F2617370709F057CF2EE0DF
:1018900030E03093210120932001C0921C01D092AE
:1018A0001D01E0921E01F0921F018FE090E084C9BB
:1018B000D90112964D915C911397495051094930C5
:1018C000510508F044CFCC0CDD1CEE1CFF1CD9CF19
:1018D000F0931901E093180173C9E8E2F1E0138273
:1018E000128288EE93E0A0E0B0E084839583A68323
:1018F000B78384E091E09183808385EC90E09587C5
:10190000848784EC90E09787868780EC90E0918BC9
:10191000808B81EC90E0938B828B82EC90E0958BB6
:10192000848B86EC90E0978B868B118E128E138EB3
:10193000148EE5ECF1E084E0818313820895DB01ED
:101940008F939F930E94AF0CBF91AF91A29F800D88
:10195000911DA39F900DB29F900D112408950E9498
:10196000F70CA59F900DB49F900DA49F800D911D25
:10197000112408950F93083090F0982F872F762F19
:10198000652F542F432F322F22270850F4CF220FD8
:10199000331F441F551F661F771F881F991F0A9505
:1019A000B2F70F91089597FB10F8169400080F9363
:1019B000083098F00850232F342F452F562F672FCB
:1019C000782F892F902DF4CF05949795879577954B
:1019D000679557954795379527950A95AAF70F91DB
:1019E0000895EE0FFF1F0590F491E02D0994A29F3A
:1019F000B001B39FC001A39F700D811D1124911DE3
:101A0000B29F700D811D1124911D08955058BB2760
:101A1000AA270E941E0D0C94980E0E948A0E38F080
:101A20000E94910E20F039F49F3F19F426F40C9493
:101A3000870E0EF4E095E7FB0C94810EE92F0E94CF
:101A4000A90E58F3BA17620773078407950720F0A9
:101A500079F4A6F50C94CB0E0EF4E0950B2EBA2F6C
:101A6000A02D0B01B90190010C01CA01A0011124A4
:101A7000FF27591B99F0593F50F4503E68F11A1650
:101A8000F040A22F232F342F4427585FF3CF4695E1
:101A900037952795A795F0405395C9F77EF41F1603
:101AA000BA0B620B730B840BBAF09150A1F0FF0FCD
:101AB000BB1F661F771F881FC2F70EC0BA0F621FB9
:101AC000731F841F48F4879577956795B795F795A9
:101AD0009E3F08F0B0CF9395880F08F09927EE0F3E
:101AE0009795879508950E945D0E08F481E008950A
:101AF0000E948C0D0C94980E0E94910E58F00E943A
:101B00008A0E40F029F45F3F29F00C94810E5111A8
:101B10000C94CC0E0C94870E0E94A90E68F39923A6
:101B2000B1F3552391F3951B550BBB27AA276217D9
:101B30007307840738F09F5F5F4F220F331F441FE6
:101B4000AA1FA9F335D00E2E3AF0E0E832D091501A
:101B50005040E695001CCAF72BD0FE2F29D0660F07
:101B6000771F881FBB1F261737074807AB07B0E84A
:101B700009F0BB0B802DBF01FF2793585F4F3AF050
:101B80009E3F510578F00C94810E0C94CC0E5F3F73
:101B9000E4F3983ED4F3869577956795B795F795D6
:101BA0009F5FC9F7880F911D9695879597F90895BE
:101BB000E1E0660F771F881FBB1F6217730784075A
:101BC000BA0720F0621B730B840BBA0BEE1F88F769
:101BD000E09508950E94F10D6894B1110C94CC0E1B
:101BE00008950E94B10E88F09F5798F0B92F992759
:101BF000B751B0F0E1F0660F771F881F991F1AF0F8
:101C0000BA95C9F714C0B13091F00E94CB0EB1E083
:101C100008950C94CB0E672F782F8827B85F39F082
:101C2000B93FCCF3869577956795B395D9F73EF490
:101C300090958095709561957F4F8F4F9F4F089538
:101C4000E89409C097FB3EF4909580957095619556
:101C50007F4F8F4F9F4F9923A9F0F92F96E9BB270C
:101C60009395F695879577956795B795F111F8CF88
:101C7000FAF4BB0F11F460FF1BC06F5F7F4F8F4FF3
:101C80009F4F16C0882311F096E911C0772321F0E9
:101C90009EE8872F762F05C0662371F096E8862F81
:101CA00070E060E02AF09A95660F771F881FDAF7D8
:101CB000880F9695879597F90895990F0008550F05
:101CC000AA0BE0E8FEEF16161706E807F907C0F0C2
:101CD00012161306E407F50798F0621B730B840BCA
:101CE000950B39F40A2661F0232B242B252B21F4A4
:101CF00008950A2609F4A140A6958FEF811D811D44
:101D0000089597F99F6780E870E060E008959FEF7D
:101D100080EC089500240A94161617061806090682
:101D2000089500240A941216130614060506089551
:101D3000092E0394000C11F4882352F0BB0F40F4D9
:101D4000BF2B11F460FF04C06F5F7F4F8F4F9F4F19
:101D5000089557FD9058440F551F59F05F3F71F09B
:101D60004795880F97FB991F61F09F3F79F0879502
:101D70000895121613061406551FF2CF4695F1DF8B
:101D800008C0161617061806991FF1CF869571051B
:101D9000610508940895E894BB2766277727CB014F
:101DA00097F908950E94E50E0C94980E0E948A0EF1
:101DB00038F00E94910E20F0952311F00C94810EC2
:101DC0000C94870E11240C94CC0E0E94A90E70F373
:101DD000959FC1F3950F50E0551F629FF001729FD0
:101DE000BB27F00DB11D639FAA27F00DB11DAA1FDF
:101DF000649F6627B00DA11D661F829F2227B00D2C
:101E0000A11D621F739FB00DA11D621F839FA00DB6
:101E1000611D221F749F3327A00D611D231F849F06
:101E2000600D211D822F762F6A2F11249F5750405D
:101E30009AF0F1F088234AF0EE0FFF1FBB1F661FD8
:101E4000771F881F91505040A9F79E3F510580F0A1
:101E50000C94810E0C94CC0E5F3FE4F3983ED4F3C7
:101E6000869577956795B795F795E7959F5FC1F745
:101E7000FE2B880F911D9695879597F9089581E01F
:0C1E800090E0F8940C94440FF894FFCF0D
:101E8C000000000023018C00BA007001EB00C900B7
:061E9C00DD000D0A00004C
:00000001FF
